{
  "_format": "hh-sol-artifact-1",
  "contractName": "Voting",
  "sourceName": "contracts/Voting.sol",
  "abi": [
    {
      "inputs": [],
      "stateMutability": "nonpayable",
      "type": "constructor"
    },
    {
      "anonymous": false,
      "inputs": [
        {
          "indexed": true,
          "internalType": "uint256",
          "name": "candidateId",
          "type": "uint256"
        },
        {
          "indexed": false,
          "internalType": "address",
          "name": "voter",
          "type": "address"
        }
      ],
      "name": "Voted",
      "type": "event"
    },
    {
      "anonymous": false,
      "inputs": [
        {
          "indexed": false,
          "internalType": "address",
          "name": "endedBy",
          "type": "address"
        }
      ],
      "name": "VotingEnded",
      "type": "event"
    },
    {
      "inputs": [
        {
          "internalType": "string",
          "name": "_name",
          "type": "string"
        },
        {
          "internalType": "string",
          "name": "_party",
          "type": "string"
        }
      ],
      "name": "addCandidate",
      "outputs": [],
      "stateMutability": "nonpayable",
      "type": "function"
    },
    {
      "inputs": [
        {
          "internalType": "uint256",
          "name": "",
          "type": "uint256"
        }
      ],
      "name": "candidates",
      "outputs": [
        {
          "internalType": "uint256",
          "name": "id",
          "type": "uint256"
        },
        {
          "internalType": "string",
          "name": "name",
          "type": "string"
        },
        {
          "internalType": "string",
          "name": "party",
          "type": "string"
        },
        {
          "internalType": "uint256",
          "name": "voteCount",
          "type": "uint256"
        }
      ],
      "stateMutability": "view",
      "type": "function"
    },
    {
      "inputs": [],
      "name": "endVoting",
      "outputs": [],
      "stateMutability": "nonpayable",
      "type": "function"
    },
    {
      "inputs": [
        {
          "internalType": "uint256",
          "name": "_index",
          "type": "uint256"
        }
      ],
      "name": "getCandidate",
      "outputs": [
        {
          "components": [
            {
              "internalType": "uint256",
              "name": "id",
              "type": "uint256"
            },
            {
              "internalType": "string",
              "name": "name",
              "type": "string"
            },
            {
              "internalType": "string",
              "name": "party",
              "type": "string"
            },
            {
              "internalType": "uint256",
              "name": "voteCount",
              "type": "uint256"
            }
          ],
          "internalType": "struct Voting.Candidate",
          "name": "",
          "type": "tuple"
        }
      ],
      "stateMutability": "view",
      "type": "function"
    },
    {
      "inputs": [],
      "name": "getCandidatesCount",
      "outputs": [
        {
          "internalType": "uint256",
          "name": "",
          "type": "uint256"
        }
      ],
      "stateMutability": "view",
      "type": "function"
    },
    {
      "inputs": [
        {
          "internalType": "address",
          "name": "_voter",
          "type": "address"
        }
      ],
      "name": "hasVoted",
      "outputs": [
        {
          "internalType": "bool",
          "name": "",
          "type": "bool"
        }
      ],
      "stateMutability": "view",
      "type": "function"
    },
    {
      "inputs": [],
      "name": "owner",
      "outputs": [
        {
          "internalType": "address",
          "name": "",
          "type": "address"
        }
      ],
      "stateMutability": "view",
      "type": "function"
    },
    {
      "inputs": [
        {
          "internalType": "uint256",
          "name": "_candidateId",
          "type": "uint256"
        }
      ],
      "name": "vote",
      "outputs": [],
      "stateMutability": "nonpayable",
      "type": "function"
    },
    {
      "inputs": [
        {
          "internalType": "address",
          "name": "",
          "type": "address"
        }
      ],
      "name": "voters",
      "outputs": [
        {
          "internalType": "bool",
          "name": "",
          "type": "bool"
        }
      ],
      "stateMutability": "view",
      "type": "function"
    },
    {
      "inputs": [],
      "name": "votingEnded",
      "outputs": [
        {
          "internalType": "bool",
          "name": "",
          "type": "bool"
        }
      ],
      "stateMutability": "view",
      "type": "function"
    }
  ],
  "bytecode": "0x608060405234801561001057600080fd5b50336000806101000a81548173ffffffffffffffffffffffffffffffffffffffff021916908373ffffffffffffffffffffffffffffffffffffffff1602179055506000600360006101000a81548160ff0219169083151502179055506115358061007b6000396000f3fe608060405234801561001057600080fd5b506004361061009e5760003560e01c80638da5cb5b116100665780638da5cb5b1461016e5780639d5a05291461018c578063a3ec138d146101aa578063bb9aa28f146101da578063c3403ddf146101f85761009e565b80630121b93f146100a357806309eef43e146100bf57806326541b56146100ef5780633477ee2e1461010b57806335b8e8201461013e575b600080fd5b6100bd60048036038101906100b89190610a82565b610202565b005b6100d960048036038101906100d49190610b0d565b6103f3565b6040516100e69190610b55565b60405180910390f35b61010960048036038101906101049190610cb6565b610449565b005b61012560048036038101906101209190610a82565b61056f565b6040516101359493929190610dbc565b60405180910390f35b61015860048036038101906101539190610a82565b6106bf565b6040516101659190610ed2565b60405180910390f35b61017661087a565b6040516101839190610f03565b60405180910390f35b61019461089e565b6040516101a19190610b55565b60405180910390f35b6101c460048036038101906101bf9190610b0d565b6108b1565b6040516101d19190610b55565b60405180910390f35b6101e26108d1565b6040516101ef9190610f1e565b60405180910390f35b6102006108de565b005b600360009054906101000a900460ff1615610252576040517f08c379a000000000000000000000000000000000000000000000000000000000815260040161024990610f85565b60405180910390fd5b600160003373ffffffffffffffffffffffffffffffffffffffff1673ffffffffffffffffffffffffffffffffffffffff16815260200190815260200160002060009054906101000a900460ff16156102df576040517f08c379a00000000000000000000000000000000000000000000000000000000081526004016102d690610ff1565b60405180910390fd5b6002805490508110610326576040517f08c379a000000000000000000000000000000000000000000000000000000000815260040161031d9061105d565b60405180910390fd5b60018060003373ffffffffffffffffffffffffffffffffffffffff1673ffffffffffffffffffffffffffffffffffffffff16815260200190815260200160002060006101000a81548160ff021916908315150217905550600281815481106103915761039061107d565b5b906000526020600020906004020160030160008154809291906103b3906110db565b9190505550807f030b0f8dcd86a031eddb071f91882edeac8173663ba775713b677b42b51be44b336040516103e89190610f03565b60405180910390a250565b6000600160008373ffffffffffffffffffffffffffffffffffffffff1673ffffffffffffffffffffffffffffffffffffffff16815260200190815260200160002060009054906101000a900460ff169050919050565b60008054906101000a900473ffffffffffffffffffffffffffffffffffffffff1673ffffffffffffffffffffffffffffffffffffffff163373ffffffffffffffffffffffffffffffffffffffff16146104d7576040517f08c379a00000000000000000000000000000000000000000000000000000000081526004016104ce90611195565b60405180910390fd5b6002604051806080016040528060028054905081526020018481526020018381526020016000815250908060018154018082558091505060019003906000526020600020906004020160009091909190915060008201518160000155602082015181600101908161054891906113c1565b50604082015181600201908161055e91906113c1565b506060820151816003015550505050565b6002818154811061057f57600080fd5b90600052602060002090600402016000915090508060000154908060010180546105a8906111e4565b80601f01602080910402602001604051908101604052809291908181526020018280546105d4906111e4565b80156106215780601f106105f657610100808354040283529160200191610621565b820191906000526020600020905b81548152906001019060200180831161060457829003601f168201915b505050505090806002018054610636906111e4565b80601f0160208091040260200160405190810160405280929190818152602001828054610662906111e4565b80156106af5780601f10610684576101008083540402835291602001916106af565b820191906000526020600020905b81548152906001019060200180831161069257829003601f168201915b5050505050908060030154905084565b6106c7610a10565b600280549050821061070e576040517f08c379a0000000000000000000000000000000000000000000000000000000008152600401610705906114df565b60405180910390fd5b600282815481106107225761072161107d565b5b906000526020600020906004020160405180608001604052908160008201548152602001600182018054610755906111e4565b80601f0160208091040260200160405190810160405280929190818152602001828054610781906111e4565b80156107ce5780601f106107a3576101008083540402835291602001916107ce565b820191906000526020600020905b8154815290600101906020018083116107b157829003601f168201915b505050505081526020016002820180546107e7906111e4565b80601f0160208091040260200160405190810160405280929190818152602001828054610813906111e4565b80156108605780601f1061083557610100808354040283529160200191610860565b820191906000526020600020905b81548152906001019060200180831161084357829003601f168201915b505050505081526020016003820154815250509050919050565b60008054906101000a900473ffffffffffffffffffffffffffffffffffffffff1681565b600360009054906101000a900460ff1681565b60016020528060005260406000206000915054906101000a900460ff1681565b6000600280549050905090565b60008054906101000a900473ffffffffffffffffffffffffffffffffffffffff1673ffffffffffffffffffffffffffffffffffffffff163373ffffffffffffffffffffffffffffffffffffffff161461096c576040517f08c379a000000000000000000000000000000000000000000000000000000000815260040161096390611195565b60405180910390fd5b600360009054906101000a900460ff16156109bc576040517f08c379a00000000000000000000000000000000000000000000000000000000081526004016109b390610f85565b60405180910390fd5b6001600360006101000a81548160ff0219169083151502179055507fd27bb741b90adb5c938e79725cac6ba73eb3ee1dd09d63ebc021616d533dd42533604051610a069190610f03565b60405180910390a1565b6040518060800160405280600081526020016060815260200160608152602001600081525090565b6000604051905090565b600080fd5b600080fd5b6000819050919050565b610a5f81610a4c565b8114610a6a57600080fd5b50565b600081359050610a7c81610a56565b92915050565b600060208284031215610a9857610a97610a42565b5b6000610aa684828501610a6d565b91505092915050565b600073ffffffffffffffffffffffffffffffffffffffff82169050919050565b6000610ada82610aaf565b9050919050565b610aea81610acf565b8114610af557600080fd5b50565b600081359050610b0781610ae1565b92915050565b600060208284031215610b2357610b22610a42565b5b6000610b3184828501610af8565b91505092915050565b60008115159050919050565b610b4f81610b3a565b82525050565b6000602082019050610b6a6000830184610b46565b92915050565b600080fd5b600080fd5b6000601f19601f8301169050919050565b7f4e487b7100000000000000000000000000000000000000000000000000000000600052604160045260246000fd5b610bc382610b7a565b810181811067ffffffffffffffff82111715610be257610be1610b8b565b5b80604052505050565b6000610bf5610a38565b9050610c018282610bba565b919050565b600067ffffffffffffffff821115610c2157610c20610b8b565b5b610c2a82610b7a565b9050602081019050919050565b82818337600083830152505050565b6000610c59610c5484610c06565b610beb565b905082815260208101848484011115610c7557610c74610b75565b5b610c80848285610c37565b509392505050565b600082601f830112610c9d57610c9c610b70565b5b8135610cad848260208601610c46565b91505092915050565b60008060408385031215610ccd57610ccc610a42565b5b600083013567ffffffffffffffff811115610ceb57610cea610a47565b5b610cf785828601610c88565b925050602083013567ffffffffffffffff811115610d1857610d17610a47565b5b610d2485828601610c88565b9150509250929050565b610d3781610a4c565b82525050565b600081519050919050565b600082825260208201905092915050565b60005b83811015610d77578082015181840152602081019050610d5c565b60008484015250505050565b6000610d8e82610d3d565b610d988185610d48565b9350610da8818560208601610d59565b610db181610b7a565b840191505092915050565b6000608082019050610dd16000830187610d2e565b8181036020830152610de38186610d83565b90508181036040830152610df78185610d83565b9050610e066060830184610d2e565b95945050505050565b610e1881610a4c565b82525050565b600082825260208201905092915050565b6000610e3a82610d3d565b610e448185610e1e565b9350610e54818560208601610d59565b610e5d81610b7a565b840191505092915050565b6000608083016000830151610e806000860182610e0f565b5060208301518482036020860152610e988282610e2f565b91505060408301518482036040860152610eb28282610e2f565b9150506060830151610ec76060860182610e0f565b508091505092915050565b60006020820190508181036000830152610eec8184610e68565b905092915050565b610efd81610acf565b82525050565b6000602082019050610f186000830184610ef4565b92915050565b6000602082019050610f336000830184610d2e565b92915050565b7f566f74696e672068617320656e64656400000000000000000000000000000000600082015250565b6000610f6f601083610d48565b9150610f7a82610f39565b602082019050919050565b60006020820190508181036000830152610f9e81610f62565b9050919050565b7f596f75206861766520616c726561647920766f74656400000000000000000000600082015250565b6000610fdb601683610d48565b9150610fe682610fa5565b602082019050919050565b6000602082019050818103600083015261100a81610fce565b9050919050565b7f496e76616c69642063616e646964617465204944000000000000000000000000600082015250565b6000611047601483610d48565b915061105282611011565b602082019050919050565b600060208201905081810360008301526110768161103a565b9050919050565b7f4e487b7100000000000000000000000000000000000000000000000000000000600052603260045260246000fd5b7f4e487b7100000000000000000000000000000000000000000000000000000000600052601160045260246000fd5b60006110e682610a4c565b91507fffffffffffffffffffffffffffffffffffffffffffffffffffffffffffffffff8203611118576111176110ac565b5b600182019050919050565b7f4f6e6c79206f776e65722063616e20706572666f726d2074686973206163746960008201527f6f6e000000000000000000000000000000000000000000000000000000000000602082015250565b600061117f602283610d48565b915061118a82611123565b604082019050919050565b600060208201905081810360008301526111ae81611172565b9050919050565b7f4e487b7100000000000000000000000000000000000000000000000000000000600052602260045260246000fd5b600060028204905060018216806111fc57607f821691505b60208210810361120f5761120e6111b5565b5b50919050565b60008190508160005260206000209050919050565b60006020601f8301049050919050565b600082821b905092915050565b6000600883026112777fffffffffffffffffffffffffffffffffffffffffffffffffffffffffffffffff8261123a565b611281868361123a565b95508019841693508086168417925050509392505050565b6000819050919050565b60006112be6112b96112b484610a4c565b611299565b610a4c565b9050919050565b6000819050919050565b6112d8836112a3565b6112ec6112e4826112c5565b848454611247565b825550505050565b600090565b6113016112f4565b61130c8184846112cf565b505050565b5b81811015611330576113256000826112f9565b600181019050611312565b5050565b601f8211156113755761134681611215565b61134f8461122a565b8101602085101561135e578190505b61137261136a8561122a565b830182611311565b50505b505050565b600082821c905092915050565b60006113986000198460080261137a565b1980831691505092915050565b60006113b18383611387565b9150826002028217905092915050565b6113ca82610d3d565b67ffffffffffffffff8111156113e3576113e2610b8b565b5b6113ed82546111e4565b6113f8828285611334565b600060209050601f83116001811461142b5760008415611419578287015190505b61142385826113a5565b86555061148b565b601f19841661143986611215565b60005b828110156114615784890151825560018201915060208501945060208101905061143c565b8683101561147e578489015161147a601f891682611387565b8355505b6001600288020188555050505b505050505050565b7f496e76616c69642063616e64696461746520696e646578000000000000000000600082015250565b60006114c9601783610d48565b91506114d482611493565b602082019050919050565b600060208201905081810360008301526114f8816114bc565b905091905056fea2646970667358221220400928c9acfcfe5e1752e5b7d65c3fbdd1cf70cd3920d36348959b53a0f6d08364736f6c63430008130033",
  "linkReferences": {},
  "deployedLinkReferences": {}
}